:020000020000FC
:1000000008E00EBF0FE50DBF0FEF01BB07BB00E01F
:100010000ABBB89AC3980E946B0008E30E944C0088
:100020000E946B000EE00E944C0001E00E944C0018
:100030000E946B0006E00E944C0003E806B900E451
:1000400007B901E00E944C000E946B00369A349B75
:10005000FECF349A04B015B016940794002D2AE010
:1000600010E0021718F0021B1395FBCF302F012F61
:10007000005D0E945600032F005D0E94560000E2C2
:100080000E94560003E40E9456000E9490000E94C5
:100090007B000E947B00D5CF02BBC198C298C39A57
:1000A0000E946000C3980E946300089502BBC19A39
:1000B000C298C39A0E946000C3980E94630008958A
:1000C0000000000008951F931CE30E9460001A9531
:1000D000E1F71F9108951F9314E10E9463001A95A0
:1000E000E1F71F9108951F9312E00E946B001A958B
:1000F000E1F71F9108951F931AEF0E9473001A955C
:10010000E1F71F9108954F935F9342E05CE30E94F3
:100110007B005A95E1F74A95C9F75F914F91089591
:100120004F93402D4F3010F4C09801C0C09A4F91AA
:02013000089530
:00000001FF
